{
	"data": {
		"bytecode": {
			"linkReferences": {},
			"object": "60806040527ffffffffffffffffffffffffffffffffffffffffffffffffffffffffffffffff65f55600a60015560fa60035f6101000a81548160ff021916908360ff1602179055503480156051575f80fd5b5061038d8061005f5f395ff3fe608060405234801561000f575f80fd5b5060043610610086575f3560e01c8063a7dbce1c11610059578063a7dbce1c146100ec578063da50eaee1461010a578063e2a4b2af14610114578063f102a71d1461013257610086565b806306540f7e1461008a5780632cb777a6146100a857806384ea3606146100c65780638b457a22146100d0575b5f80fd5b61009261013c565b60405161009f91906101e5565b60405180910390f35b6100b0610142565b6040516100bd9190610216565b60405180910390f35b6100ce610147565b005b6100ea60048036038101906100e5919061025d565b61017a565b005b6100f4610184565b60405161010191906101e5565b60405180910390f35b61011261018a565b005b61011c6101a3565b60405161012991906102a3565b60405180910390f35b61013a6101b5565b005b60015481565b5f5481565b60035f81819054906101000a900460ff168092919060010191906101000a81548160ff021916908360ff16021790555050565b8060028190555050565b60025481565b60025f81548092919061019c906102e9565b9190505550565b60035f9054906101000a900460ff1681565b5f808154809291906101c690610310565b9190505550565b5f819050919050565b6101df816101cd565b82525050565b5f6020820190506101f85f8301846101d6565b92915050565b5f819050919050565b610210816101fe565b82525050565b5f6020820190506102295f830184610207565b92915050565b5f80fd5b61023c816101cd565b8114610246575f80fd5b50565b5f8135905061025781610233565b92915050565b5f602082840312156102725761027161022f565b5b5f61027f84828501610249565b91505092915050565b5f60ff82169050919050565b61029d81610288565b82525050565b5f6020820190506102b65f830184610294565b92915050565b7f4e487b71000000000000000000000000000000000000000000000000000000005f52601160045260245ffd5b5f6102f3826101cd565b91505f8203610305576103046102bc565b5b600182039050919050565b5f61031a826101fe565b91507f7fffffffffffffffffffffffffffffffffffffffffffffffffffffffffffffff820361034c5761034b6102bc565b5b60018201905091905056fea2646970667358221220e914edbdf05bf448b62821e07a53105f642ac09e3570ee374f09e689b0c2f91c64736f6c634300081a0033",
			"opcodes": "PUSH1 0x80 PUSH1 0x40 MSTORE PUSH32 0xFFFFFFFFFFFFFFFFFFFFFFFFFFFFFFFFFFFFFFFFFFFFFFFFFFFFFFFFFFFFFFF6 PUSH0 SSTORE PUSH1 0xA PUSH1 0x1 SSTORE PUSH1 0xFA PUSH1 0x3 PUSH0 PUSH2 0x100 EXP DUP2 SLOAD DUP2 PUSH1 0xFF MUL NOT AND SWAP1 DUP4 PUSH1 0xFF AND MUL OR SWAP1 SSTORE POP CALLVALUE DUP1 ISZERO PUSH1 0x51 JUMPI PUSH0 DUP1 REVERT JUMPDEST POP PUSH2 0x38D DUP1 PUSH2 0x5F PUSH0 CODECOPY PUSH0 RETURN INVALID PUSH1 0x80 PUSH1 0x40 MSTORE CALLVALUE DUP1 ISZERO PUSH2 0xF JUMPI PUSH0 DUP1 REVERT JUMPDEST POP PUSH1 0x4 CALLDATASIZE LT PUSH2 0x86 JUMPI PUSH0 CALLDATALOAD PUSH1 0xE0 SHR DUP1 PUSH4 0xA7DBCE1C GT PUSH2 0x59 JUMPI DUP1 PUSH4 0xA7DBCE1C EQ PUSH2 0xEC JUMPI DUP1 PUSH4 0xDA50EAEE EQ PUSH2 0x10A JUMPI DUP1 PUSH4 0xE2A4B2AF EQ PUSH2 0x114 JUMPI DUP1 PUSH4 0xF102A71D EQ PUSH2 0x132 JUMPI PUSH2 0x86 JUMP JUMPDEST DUP1 PUSH4 0x6540F7E EQ PUSH2 0x8A JUMPI DUP1 PUSH4 0x2CB777A6 EQ PUSH2 0xA8 JUMPI DUP1 PUSH4 0x84EA3606 EQ PUSH2 0xC6 JUMPI DUP1 PUSH4 0x8B457A22 EQ PUSH2 0xD0 JUMPI JUMPDEST PUSH0 DUP1 REVERT JUMPDEST PUSH2 0x92 PUSH2 0x13C JUMP JUMPDEST PUSH1 0x40 MLOAD PUSH2 0x9F SWAP2 SWAP1 PUSH2 0x1E5 JUMP JUMPDEST PUSH1 0x40 MLOAD DUP1 SWAP2 SUB SWAP1 RETURN JUMPDEST PUSH2 0xB0 PUSH2 0x142 JUMP JUMPDEST PUSH1 0x40 MLOAD PUSH2 0xBD SWAP2 SWAP1 PUSH2 0x216 JUMP JUMPDEST PUSH1 0x40 MLOAD DUP1 SWAP2 SUB SWAP1 RETURN JUMPDEST PUSH2 0xCE PUSH2 0x147 JUMP JUMPDEST STOP JUMPDEST PUSH2 0xEA PUSH1 0x4 DUP1 CALLDATASIZE SUB DUP2 ADD SWAP1 PUSH2 0xE5 SWAP2 SWAP1 PUSH2 0x25D JUMP JUMPDEST PUSH2 0x17A JUMP JUMPDEST STOP JUMPDEST PUSH2 0xF4 PUSH2 0x184 JUMP JUMPDEST PUSH1 0x40 MLOAD PUSH2 0x101 SWAP2 SWAP1 PUSH2 0x1E5 JUMP JUMPDEST PUSH1 0x40 MLOAD DUP1 SWAP2 SUB SWAP1 RETURN JUMPDEST PUSH2 0x112 PUSH2 0x18A JUMP JUMPDEST STOP JUMPDEST PUSH2 0x11C PUSH2 0x1A3 JUMP JUMPDEST PUSH1 0x40 MLOAD PUSH2 0x129 SWAP2 SWAP1 PUSH2 0x2A3 JUMP JUMPDEST PUSH1 0x40 MLOAD DUP1 SWAP2 SUB SWAP1 RETURN JUMPDEST PUSH2 0x13A PUSH2 0x1B5 JUMP JUMPDEST STOP JUMPDEST PUSH1 0x1 SLOAD DUP2 JUMP JUMPDEST PUSH0 SLOAD DUP2 JUMP JUMPDEST PUSH1 0x3 PUSH0 DUP2 DUP2 SWAP1 SLOAD SWAP1 PUSH2 0x100 EXP SWAP1 DIV PUSH1 0xFF AND DUP1 SWAP3 SWAP2 SWAP1 PUSH1 0x1 ADD SWAP2 SWAP1 PUSH2 0x100 EXP DUP2 SLOAD DUP2 PUSH1 0xFF MUL NOT AND SWAP1 DUP4 PUSH1 0xFF AND MUL OR SWAP1 SSTORE POP POP JUMP JUMPDEST DUP1 PUSH1 0x2 DUP2 SWAP1 SSTORE POP POP JUMP JUMPDEST PUSH1 0x2 SLOAD DUP2 JUMP JUMPDEST PUSH1 0x2 PUSH0 DUP2 SLOAD DUP1 SWAP3 SWAP2 SWAP1 PUSH2 0x19C SWAP1 PUSH2 0x2E9 JUMP JUMPDEST SWAP2 SWAP1 POP SSTORE POP JUMP JUMPDEST PUSH1 0x3 PUSH0 SWAP1 SLOAD SWAP1 PUSH2 0x100 EXP SWAP1 DIV PUSH1 0xFF AND DUP2 JUMP JUMPDEST PUSH0 DUP1 DUP2 SLOAD DUP1 SWAP3 SWAP2 SWAP1 PUSH2 0x1C6 SWAP1 PUSH2 0x310 JUMP JUMPDEST SWAP2 SWAP1 POP SSTORE POP JUMP JUMPDEST PUSH0 DUP2 SWAP1 POP SWAP2 SWAP1 POP JUMP JUMPDEST PUSH2 0x1DF DUP2 PUSH2 0x1CD JUMP JUMPDEST DUP3 MSTORE POP POP JUMP JUMPDEST PUSH0 PUSH1 0x20 DUP3 ADD SWAP1 POP PUSH2 0x1F8 PUSH0 DUP4 ADD DUP5 PUSH2 0x1D6 JUMP JUMPDEST SWAP3 SWAP2 POP POP JUMP JUMPDEST PUSH0 DUP2 SWAP1 POP SWAP2 SWAP1 POP JUMP JUMPDEST PUSH2 0x210 DUP2 PUSH2 0x1FE JUMP JUMPDEST DUP3 MSTORE POP POP JUMP JUMPDEST PUSH0 PUSH1 0x20 DUP3 ADD SWAP1 POP PUSH2 0x229 PUSH0 DUP4 ADD DUP5 PUSH2 0x207 JUMP JUMPDEST SWAP3 SWAP2 POP POP JUMP JUMPDEST PUSH0 DUP1 REVERT JUMPDEST PUSH2 0x23C DUP2 PUSH2 0x1CD JUMP JUMPDEST DUP2 EQ PUSH2 0x246 JUMPI PUSH0 DUP1 REVERT JUMPDEST POP JUMP JUMPDEST PUSH0 DUP2 CALLDATALOAD SWAP1 POP PUSH2 0x257 DUP2 PUSH2 0x233 JUMP JUMPDEST SWAP3 SWAP2 POP POP JUMP JUMPDEST PUSH0 PUSH1 0x20 DUP3 DUP5 SUB SLT ISZERO PUSH2 0x272 JUMPI PUSH2 0x271 PUSH2 0x22F JUMP JUMPDEST JUMPDEST PUSH0 PUSH2 0x27F DUP5 DUP3 DUP6 ADD PUSH2 0x249 JUMP JUMPDEST SWAP2 POP POP SWAP3 SWAP2 POP POP JUMP JUMPDEST PUSH0 PUSH1 0xFF DUP3 AND SWAP1 POP SWAP2 SWAP1 POP JUMP JUMPDEST PUSH2 0x29D DUP2 PUSH2 0x288 JUMP JUMPDEST DUP3 MSTORE POP POP JUMP JUMPDEST PUSH0 PUSH1 0x20 DUP3 ADD SWAP1 POP PUSH2 0x2B6 PUSH0 DUP4 ADD DUP5 PUSH2 0x294 JUMP JUMPDEST SWAP3 SWAP2 POP POP JUMP JUMPDEST PUSH32 0x4E487B7100000000000000000000000000000000000000000000000000000000 PUSH0 MSTORE PUSH1 0x11 PUSH1 0x4 MSTORE PUSH1 0x24 PUSH0 REVERT JUMPDEST PUSH0 PUSH2 0x2F3 DUP3 PUSH2 0x1CD JUMP JUMPDEST SWAP2 POP PUSH0 DUP3 SUB PUSH2 0x305 JUMPI PUSH2 0x304 PUSH2 0x2BC JUMP JUMPDEST JUMPDEST PUSH1 0x1 DUP3 SUB SWAP1 POP SWAP2 SWAP1 POP JUMP JUMPDEST PUSH0 PUSH2 0x31A DUP3 PUSH2 0x1FE JUMP JUMPDEST SWAP2 POP PUSH32 0x7FFFFFFFFFFFFFFFFFFFFFFFFFFFFFFFFFFFFFFFFFFFFFFFFFFFFFFFFFFFFFFF DUP3 SUB PUSH2 0x34C JUMPI PUSH2 0x34B PUSH2 0x2BC JUMP JUMPDEST JUMPDEST PUSH1 0x1 DUP3 ADD SWAP1 POP SWAP2 SWAP1 POP JUMP INVALID LOG2 PUSH5 0x6970667358 0x22 SLT KECCAK256 0xE9 EQ 0xED 0xBD CREATE JUMPDEST DELEGATECALL BASEFEE 0xB6 0x28 0x21 0xE0 PUSH27 0x53105F642AC09E3570EE374F09E689B0C2F91C64736F6C63430008 BYTE STOP CALLER "
		},
		"gasEstimates": {
			"creation": {
				"codeDepositCost": "181800",
				"executionCost": "68701",
				"totalCost": "250501"
			},
			"external": {
				"decrementUint()": "24518",
				"incrementInt()": "24563",
				"incrementUint8()": "26616",
				"myInt()": "2447",
				"myUint()": "2426",
				"myUint256()": "2425",
				"myUint8()": "2510",
				"setMyUint256(uint256)": "22582"
			}
		},
		"methodIdentifiers": {
			"decrementUint()": "da50eaee",
			"incrementInt()": "f102a71d",
			"incrementUint8()": "84ea3606",
			"myInt()": "2cb777a6",
			"myUint()": "06540f7e",
			"myUint256()": "a7dbce1c",
			"myUint8()": "e2a4b2af",
			"setMyUint256(uint256)": "8b457a22"
		}
	},
	"abi": [
		{
			"inputs": [],
			"name": "decrementUint",
			"outputs": [],
			"stateMutability": "nonpayable",
			"type": "function"
		},
		{
			"inputs": [],
			"name": "incrementInt",
			"outputs": [],
			"stateMutability": "nonpayable",
			"type": "function"
		},
		{
			"inputs": [],
			"name": "incrementUint8",
			"outputs": [],
			"stateMutability": "nonpayable",
			"type": "function"
		},
		{
			"inputs": [],
			"name": "myInt",
			"outputs": [
				{
					"internalType": "int256",
					"name": "",
					"type": "int256"
				}
			],
			"stateMutability": "view",
			"type": "function"
		},
		{
			"inputs": [],
			"name": "myUint",
			"outputs": [
				{
					"internalType": "uint256",
					"name": "",
					"type": "uint256"
				}
			],
			"stateMutability": "view",
			"type": "function"
		},
		{
			"inputs": [],
			"name": "myUint256",
			"outputs": [
				{
					"internalType": "uint256",
					"name": "",
					"type": "uint256"
				}
			],
			"stateMutability": "view",
			"type": "function"
		},
		{
			"inputs": [],
			"name": "myUint8",
			"outputs": [
				{
					"internalType": "uint8",
					"name": "",
					"type": "uint8"
				}
			],
			"stateMutability": "view",
			"type": "function"
		},
		{
			"inputs": [
				{
					"internalType": "uint256",
					"name": "_myUint256",
					"type": "uint256"
				}
			],
			"name": "setMyUint256",
			"outputs": [],
			"stateMutability": "nonpayable",
			"type": "function"
		}
	]
}